:020000040800F2
:1050000000500020ED720008116A0008136A0008C1
:10501000156A0008176A0008196A000800000000F5
:105020000000000000000000000000001B6A0008F3
:105030001D6A0008000000001F6A0008216A0008BD
:105040003D7300083D7300083D730008396C00088B
:105050003D7300083D730008756A0008956A0008F2
:10506000B56A0008E96A0008096B00083D7300088A
:105070003D7300083D7300083D730008956C0008FF
:105080003D7300083D730008256A00083D73000861
:10509000996C00083D7300083D730008296B0008F7
:1050A0003D7300083D7300083D730008F16B000874
:1050B0003D7300083D7300083D730008456A000811
:1050C000556A00083D7300083D730008656A0008D2
:1050D0003D7300083D730008356A00083D73000801
:1050E000796B0008556C00083D7300080000000053
:1050F00000000000000000000000000000000000B0
:0C51000000000000000000005FF808F153
:1051100008B50720002100F0B1FD00F07BFE014B37
:10512000186008BD140B002010B500F073FE164B7C
:1051300041F288321968401A904216D9134C2078EF
:10514000012805D14FF6FF7004F0A2FA0022227068
:105150000F4C0720217800F015FE23781E2083F0E5
:105160000101217000F05CFEF2E7094C0720217874
:1051700000F008FE2378642083F001012170BDE86F
:10518000104000F04DBE00BF140B0020C8230020CB
:105190000000002007B5002100910A460B46024896
:1051A00000F008FF0EBD00BF180B002010B5013144
:1051B000002393420ED0040F092C01D8303400E0B4
:1051C000373401F8014C01330024000101F8024B8F
:1051D000DBB2EEE710BD000010B54FF000604FF4F9
:1051E000A04106F0FBF80124274B284821461C70FB
:1051F00006F014FB04F0F6FB04F0D4F8214640203E
:1052000006F0CAFB6FF07F4004F042FAE72004F09A
:10521000BBFA1F48047004F003F97D2006F0E0FBA0
:1052200018B11C490C7006F0EFFB46F2606004F008
:105230005FF9194C04F0A0FE05F030F8174801F0B2
:10524000FBF90122227001F083FA154B187818B986
:1052500014490A78002AF6D0134C23785BB9114C14
:105260002078012801D0114941B9114B0BB1FFF74A
:105270005BFF00F0E9FC06F02FFBE4E7FFF748FFD7
:1052800001222270F1E700BF0E1A00200004300056
:1052900085190020C82300209F190020115A0008FA
:1052A00083190020200B00208419002011510008D0
:1052B0002951000838B56B4B6B495A68501C58602F
:1052C0000C6814B10B685A1E0A606848017831B145
:1052D000674C2278EAB16748002835D119E0664C5E
:1052E000236813B12368591E12E0644A107880B90C
:1052F00063490B786BB9634A107850B9624D2978CD
:10530000624D31B3E72004F0B9FA2978F9B11421DC
:1053100021605F49534B097849B19C684EF65F2282
:10532000944202D901241C7302E09868411C9960E0
:10533000524B1C78002C3BD1204604F09DFB40F6DC
:10534000B732904222D833E000F0AAFBE1E7012116
:10535000DEE72B7883B14F4C237813B14FF47F00F5
:1053600001E04FF6FF7004F093F9E72004F00CFA27
:10537000454801220270CCE7E72004F033FA464AA0
:10538000107808B13221C3E76421C1E7204604F058
:105390007BFB424A1178C1B9414803782BB13E4AA0
:1053A0003A48117803780B4256D00120334B0BE07A
:1053B000002004F061FB41F65731884205D90020F6
:1053C00004F062FB374B012018703448037863BB4C
:1053D0002B4A244B117841B1196941F2873081423F
:1053E0001DD81A69511C19611FE0284802786AB15A
:1053F000586947F22F52904204D959612A4B012231
:105400001A7012E05969481C58610EE02249087868
:1054100058B1986942F20F71884203D99A6101200C
:10542000187302E09A69501C98610E4B1A7B62B1A6
:10543000BFF34F8F1D4D1E4BEC6804F4E06242EA4F
:105440000301E960BFF34F8FFEE71749087838B1D1
:10545000BDE8384000F0BABB134901220A70A4E746
:1054600038BD00BF200B0020D0230020F8190020F9
:10547000C40E0020A15A0008CC230020801900206F
:105480008419002086190020851900208319002026
:10549000641A0020C8230020821900209E190020D1
:1054A00081190020931900209019002000ED00E0E0
:1054B0000400FA0508B5094B186004F007FD002048
:1054C00004F04CFD064803F095FF04F015FD04F0D0
:1054D00033FDBDE8084005F005BD00BFCC0100204C
:1054E000A0860100074B1868052809D106490A7FE4
:1054F000012A05D1887F91F82030C11AC8B27047BF
:1055000000207047281A0020200B00200E4B10B5F9
:105510001868052814D10D4C217F012910D1E28B88
:10552000238CD01A012804D100210320217705F013
:1055300044FE238CE218591C92F82200218410BDED
:105540004FF0FF3010BD00BF281A0020200B0020B4
:10555000084B196805290BD1074B5A6E991881F829
:105560006800501CB0F5807F586601D100225A6651
:10557000704700BF281A0020200B002070B5234A76
:1055800092F86831012B3FD0D2F86C01B0F5807FE2
:1055900002D10021C2F86C11D2F86C31526E1B4856
:1055A000934203D1002180F8681170BD8CBFC3F510
:1055B0008072C3EB0202154CC0F87021D4F8705110
:1055C00099B2402D07D94033403DC4F86C31C4F83E
:1055D0007051402606E0E8180023AEB2C4F86C0112
:1055E000C4F870310A4A01255018C021324684F8A7
:1055F000685105F059FD2846314605F05FFE284602
:10560000BDE8704005F0C8BD70BD00BF200B002094
:10561000880B0020094B10B593E814000833186874
:1056200010180AD008220649FFF7C0FD0549204698
:105630000422BDE81040FFF7B9BD10BDE8F7FF1F19
:105640007B0100208B01002038B50D460446AC429A
:1056500003D254F8043B9847F9E738BD08B507482A
:105660000749FFF7F1FF07480749FFF7EDFF074834
:105670000749BDE80840FFF7E7BF00BFD84301086E
:10568000D8430108D84301082044010820440108F8
:1056900020440108FEE70000054A08B513680549E3
:1056A00018188842106001D90AF0A2FE184608BDF9
:1056B00004000020004800204FF0FF307047012018
:1056C00070470000014B1868704700BF940C002021
:1056D000064B0246582000FB013101F1080303CBC1
:1056E0001060516018689060704700BF940C0020F3
:1056F000014BD3F864017047940C0020064B02461E
:10570000142000FB013101F5B67303CB106051602A
:1057100018689060704700BF940C00200E4B2DE974
:10572000F041D3F8647180460024BC4211DA14259C
:105730006543094E4146701900F5B6700C220BF016
:10574000AFFF20B97519D5F86801BDE8F0810134C3
:10575000EBE70020BDE8F081940C00202DE9F04734
:1057600088B0814668460D4600F01AFD1E4B0024A5
:10577000D3F800A054452DDA55B3582666431A4F86
:10578000494607F1040808EB060004300C220BF030
:1057900087FFE8B928460BF053FF06F110014028B7
:1057A00034BF0246402208EB010029460BF048FABC
:1057B000BE19012286F85820694604A8746800F0D2
:1057C00011FD04A8A047044604A800F0A7FC03E0CC
:1057D0000134CFE74FF0FF34684600F09FFC2046CD
:1057E00008B0BDE8F08700BF940C002038B505462E
:1057F000064C28B103F0EEFF012384F8303238BDA7
:1058000003F096FF84F8305238BD00BF940C00209E
:10581000024B00221A6004F039BC00BF300B00209C
:10582000034A044800231370036004F06DBC00BFFA
:1058300084190020300B0020044B05490020012270
:105840001A7008604FF4C02004F0FABB84190020DD
:10585000300B0020F0B5264B0646187887B00F466F
:1058600018B924490C78254614B14FF0FF303DE0BB
:105870008DF80C408DF80D408DF80E408DF80F40DE
:105880001D4C06A8D4F8343204955A0900EB820264
:1058900003F01F01012000FA01F052F80C1C014333
:1058A00042F80C1C04A841F288320592009003A92A
:1058B000581C2A462B4602F0E5FE002816DDD4F8D7
:1058C000343206A95C0901EB840050F80C4C03F05B
:1058D0001F0244FA02F414F0010007D018463146C2
:1058E0002B463A4602F066FF044B1D6007B0F0BD40
:1058F000901900209E190020940C0020340B0020E9
:1059000010B50A4609490346087810B9084C2478AE
:1059100014B14FF0FF3010BD0649D1F834021946DA
:10592000234602F0C9FF044A146010BD90190020FC
:105930009E190020940C0020340B002030B51E4826
:10594000ADF5797D06F0F9FA002832D11B4B1C48E1
:105950001C4D04931C491D4A1D4B059009951D487B
:105960001D4D069107920A931C491D4A1D4B0B9031
:105970000E951D481D4D1E4C0C910D921D491E4A41
:105980000F931E4B1090139515A85FAD11911292B5
:105990001493089403900CAC029504F0C7FB2846BE
:1059A00004F0CAFB00940448154902AA04AB06F0AF
:1059B000CBFA0DF5797D30BDC80F002001590008E4
:1059C0005558000811580008395800082158000897
:1059D000ED570008155E00085D570008C556000821
:1059E000D1560008F1560008FD56000845A10008F0
:1059F00069A100082D5C00081D57000859A1000886
:105A0000E8F7FF1F014807F0ABB800BFC80F002040
:105A100030B5022011228DB0014602F0B3FD051E03
:105A200028DB154907A806F0A2FB02231620002454
:105A3000ADF80C308DF80E003321E0220123BB209D
:105A40008DF811408DF80F108DF810208DF8123060
:105A50008DF813000324102203A900910192002362
:105A60001322284607A902F031FF013CF3D1284652
:105A700002F0B6FD0DB030BDE8F7FF1F10B5074CC2
:105A8000FFF75CFF204606F05BFA204606F0B8FD03
:105A90000446FFF7BDFF204610BD00BFC80F002021
:105AA00038B5114CD4F8445B2DB1D4F8441B4B1ECF
:105AB000C4F8443B38BDD4F8483B0C4A52F82300A4
:105AC00003F00EFEE72003F05FFE094A6420D4F8DD
:105AD000481BC4F8440B10684B1C8342C4F8483B75
:105AE000A8BFC4F8485B38BD940C0020C01701085B
:105AF0000800002030B502200121062285B002F006
:105B000041FD051E1ADB00213522082402238DF8F1
:105B100002108DF80320694610228DF804408DF89C
:105B200005408DF806408DF80740ADF8003002F0D2
:105B30007DFD0446284602F053FD01E04FF0FF349E
:105B4000204605B030BD000010B5074C642003F0BE
:105B500045FCD4F8340202F043FD18B94FF0FF338E
:105B6000C4F8343210BD00BF940C002008B5FFF714
:105B7000EBFF02200121062202F004FD114B002858
:105B8000C3F834021ADB0221A3F84C1B332116227E
:105B900083F84F1BD02183F84E2B83F8511B3622FC
:105BA000042183F8502B83F8531BE522064983F820
:105BB000522B1022BDE8084002F038BD4FF0FF30F4
:105BC00008BD00BF940C0020E0170020044B012208
:105BD00000205A801880D886024B1A70704700BF88
:105BE0005C1B0020901900200F4B2DE9F041D3F8E9
:105BF000647180460024BC4211DA142565430A4EC4
:105C00004146701900F5B6700C220BF049FD20B921
:105C1000751995F87801BDE8F0810134EBE74FF094
:105C2000FF30BDE8F08100BF940C002008B5FFF7FD
:105C3000DBFF0138082803D8024B1918087F08BD7C
:105C4000022008BDC0170108084B0022D3F83C12FF
:105C500003F510738A4208DA93F8500010B100205F
:105C600083F8500001325133F4E77047940C002060
:105C7000014806F052B900BFC80F002014282DE9D2
:105C8000F34104460E4675D8FF2973D000F026FA7A
:105C900028B10D2C6ED00F2C6CD00E2C6AD000F0D9
:105CA0003BF908B1012C65D900F0FCFA18B1A4F158
:105CB0001203012B5ED9304D20012F582F492A188D
:105CC0008F42B2F8048001D1042003E02C4B9F42A4
:105CD00003D10820012105F06BFEADF80480062EEB
:105CE00044D8DFE806F00411181F26313C00224A90
:105CF000102302EB041403200021A1738DF8073058
:105D00008DF80600083431E004218DF8071005EB0A
:105D10000414012229E048228DF8072005EB041421
:105D2000022222E028208DF8070005EB041403224C
:105D30001BE0114B182203218DF807208DF8061067
:105D400003EB0414042210E00B481C2103238DF8FC
:105D500007108DF8063000EB0414052205E0002042
:105D60008DF8070005EB04140622A273384601A93A
:105D700005F0FAFCBDE8FC810C00002000080140A1
:105D8000000C0140142870B504460E463ED8204B46
:105D900003EB0010817B012938D0022936D003297A
:105DA00034D0062932D0FF2930D000F097F930B135
:105DB0000D2C2BD00F2C29D00E2C00D170BD00F053
:105DC000ABF810B1012C00D870BD00F06BFA20B117
:105DD000A4F11202012A00D870BD0D4D05EB041389
:105DE000987B042803D120460021FFF747FF012EAE
:105DF00005D124012819295983880B6170BD2EB95A
:105E0000240129192B598A885A6170BD70BD00BFC1
:105E10000C000020014B1868704700BF240B0020C5
:105E2000034B1A68801819688842FCD8704700BF75
:105E3000240B002007B5002100910A460B460248BA
:105E400000F0B8F80EBD00BFF4170020024B187820
:105E50005978401A704700BFFC170020064B5A784B
:105E60001978914204D99818013280785A70704795
:105E70004FF0FF30704700BFFC170020054B5A78E9
:105E80001978914202D99818807870474FF0FF3006
:105E9000704700BFFC17002070470000F8B5094BA1
:105EA000054693F82200164650B10C468F18BC42A6
:105EB00006D0296828460A6814F8011B9047F6E7BF
:105EC0003046F8BDFC17002010B50C4B012293F8AA
:105ED00022408CB193F823401F2C02D9426000204D
:105EE00010BD93F824001C1884F82510411CC8B27A
:105EF00083F8240083F82300104610BDFC1700200F
:105F000000224260024A4FF47A7181600260704759
:105F1000F017010870477047014B93F8590070471C
:105F2000FC17002013B5084C0021009104F1640017
:105F30000A460B4600F03EF804F16C0002B0BDE8E2
:105F40001040FFF7DDBF00BFFC17002008B5034B72
:105F500053F8200000B1804708BD00BF781800202A
:105F600007B5002100910A460B46024800F022F8CE
:105F70000EBD00BFB81800202DE9F04100240746EF
:105F80000E4625463B1919790A22304600F08CF856
:105F90002E218046304600F055F801344044032C51
:105FA0000544EFD13046F9790A2200F07DF828182F
:105FB000BDE8F08130B58371044D9DF80C30044686
:105FC000056001714271C37130BD00BF1018010836
:105FD000044B054A00201A60187158719871D871E5
:105FE000704700BFC01800201018010807B5002135
:105FF00000910A460B460248FFF7DCFF0EBD00BFCA
:10600000C8180020F8B506460C468F180025BC427B
:1060100007D0336830461A6814F8011B90472D18D2
:10602000F5E72846F8BD38B505460C46084641B1A7
:106030000BF006FB2B6802465B6828462146984712
:1060400038BD38BD08B503681A68904708BD70B5FB
:1060500000238AB08DF82430012A98BF0A220DF15E
:106060002303B1FBF2F505FB1211CCB2092C1E463D
:1060700001D8303400E03734E4B203F8014929464E
:10608000002DEED13146FFF7CEFF0AB070BD10B53E
:10609000044622B90268C9B21268904710BDD2B254
:1060A000BDE81040FFF7D3BFFFF7F1BF07B50021F0
:1060B00000910A460B460248FFF77CFF0EBD00BF69
:1060C000D418002007B5002100910A460B4602486B
:1060D000FFF770FF0EBD00BFDC180020014B587D9C
:1060E000704700BFE41800207047000007B500218A
:1060F00000910A460B460248FFF75CFF0EBD00BF49
:10610000FC18002007B5002100910A460B46024802
:10611000FFF750FF0EBD00BF0819002010B5044660
:1061200000680AF091FA204610BD10B504460068D8
:1061300008B10AF089FA00232360A360636010BDF0
:1061400038B504460D46006801310AF0BDFF10B1B4
:1061500084E82100012038BD036810B5044613B15E
:106160004068884207D22046FFF7EAFF20B1A168C5
:1061700009B922681170012010BD70B50E46114694
:1061800004461546FFF7E8FF18B92046FFF7CDFF94
:1061900004E0A560206831460BF0F4F9204670BD9C
:1061A00038B50023044603604360836003730D46E3
:1061B00039B108460BF044FA294602462046FFF75B
:1061C000DCFF204638BD884210B50B46044607D098
:1061D000096819B19A68FFF7D0FF01E0FFF7A5FF42
:1061E000204610BD002310B5044603604360836061
:1061F0000373FFF7E8FF204610BD000007B500213C
:1062000000910A460B460248FFF7D4FE0EBD00BFC0
:106210001019002007B5002100910A460B460248DC
:10622000FFF7C8FE0EBD00BF1819002007B50021FA
:1062300000910A460B460248FFF7BCFE0EBD00BFA8
:10624000201900204FF0FF307047704708B505480F
:1062500005F047FE0348802105F04BFE0028F9D0E9
:10626000012008BD00440040202108B5034805F086
:1062700040FE003018BF012008BD00BF00440040B0
:1062800008B5024805F031FE08BD00BF00440040DB
:1062900000224260024A4FF47A71816002607047C6
:1062A00020180108014B187C704700BF28190020F6
:1062B00013B5084C0021009104F114000A460B4666
:1062C000FFF778FE04F11C0002B0BDE81040FFF7B4
:1062D000DFBF00BF2819002070474FF0FF30704724
:1062E000084608B5FFF734F9012008BD08B5FFF7E7
:1062F000F9F808BDFFF70AB900224260024A4FF4DC
:106300007A71816002607047401801080846FFF703
:10631000D1B8000013B5074C0021009120460A4671
:106320000B46FFF747FE04F1080002B0BDE810403D
:10633000FFF7E2BF5419002000230360184670479E
:106340000023036018467047002303601846704717
:1063500048F20203984210B51CD008DC992848D0B6
:10636000591E88425BD12E480122C27010BD48F2EE
:106370008002904207D0B0F5084F3ED048F210039B
:1063800098424CD124E0264B01210020197059700D
:10639000987010BD224CE27852B1224B00224FF48B
:1063A0007F401A7003F074F9E72003F0EDF906E07E
:1063B000237913B1581E207101E0012121750021BC
:1063C000E1706175A175E17521766176A17610BDE8
:1063D000087D134950B901234FF47F404B7503F0FA
:1063E00057F9E720BDE8104003F0CEB900224A7506
:1063F00010BD0B4B0121D97610BD0A78072A0ED8A3
:10640000074B01219818017707480068824206D19E
:1064100000221A765A76DA759A7583F8241010BD20
:106420006C190020F8190020C80E00202DE9F04159
:1064300091F8008086B00C46B8F1000F14BF90466A
:106440004FF0000806460BF0FBF8074620460BF01D
:10645000F7F8012518231E210222019302910392CD
:106460000590002300950494404631463A4602F0D8
:106470006DFB044B83F8250083F8265006B0BDE879
:10648000F08100BF6C1900201FB54FF03C0C0A23AF
:106490004FF461514FF461628DE80E10684601A916
:1064A00002AA03AB01F0ACFB05B000BD1FB5002391
:1064B000009301930293039301A8694602AA03ABD8
:1064C00001F066FB05B000BD30B5574D00249FB00C
:1064D000FF202C706C7085F82640EC706C75EC76A3
:1064E000AC75EC752C766C7603F0D2F8E72003F0EF
:1064F0004BF921462246204602F004FB2B4601219F
:1065000003F8054F0E200A4601F0FEFB464BD878F3
:10651000012805D1642002F061FF01F08DF8F5E754
:1065200010210C2001F03CFC404802F003F84048E8
:1065300002F05CFC012002F03DFC68463D4900F0A1
:10654000ABFD394D297895F826200A431ED195F8E0
:106550002750002D5ED0FF2002F0E0FB002859D12B
:106560001A24013C06D0E72003F03CF9322002F067
:1065700035FFF6E72C4D0E202B4603F8044F012182
:10658000224601F0C1FB85F82740DAE7E72003F057
:10659000FBF80E20012100222B1D01F087FB2C7837
:1065A0001CB102F041FC85F825001F4C012194F834
:1065B00025300022581C234603F8040F0E2001F05A
:1065C000A3FB00200146012202F09CFA012523468C
:1065D000294603F8055F2A460E2001F095FB02F0DC
:1065E00017FA642002F0FAFE002002F0C5F948F222
:1065F000442084F8285002F0ABFB4FF47F4003F0B6
:1066000047F8E72003F0C0F8FFF73EFF00212175AF
:106610001FB030BDE72003F0E5F8FA2002F0DEFEFF
:10662000684600F09BFD8CE76C19002058180108A3
:10663000600100202D64000830B5394C85B0E0625F
:1066400003F074FB03F0B4FA364B37483749384A45
:1066500000930190374B029103923749374A3848EB
:1066600002F076F9642002F0B9FE002002F084F90D
:106670000025012348F24420657684F8283002F092
:1066800067FB30480188012906D00E2010212A46D8
:10669000231D01F00BFBA8B1FF2002F03FFB1021EE
:1066A0000E2001F07DFB0021274B0024CC5401314A
:1066B0001029F9D122460E2001F026FB214A148030
:1066C00003F07CFC164CA37893B9207910B9012112
:1066D00021750DE0607958B90146012202F012FAE5
:1066E0000121234603F8051F0E200A4601F00CFB8A
:1066F0000B4B9A785AB9187D48B1144801F036FB13
:10670000FFF7D4FE05B0BDE83040FFF7BDBE4FF443
:106710007F4002F0BDFFE72003F036F8EDE700BF51
:106720006C190020699C00087D9C0008E99C000809
:10673000119D00084963000839630008416300089F
:1067400051630008AE020020701900209C1900203F
:106750002DE9F341A04C94F824202346002A40F070
:10676000B18094F83200002840F0AC8094F8280002
:1067700020B902F001F9012184F82810964C217DFE
:1067800011B1FFF7A1FE06E0A27822B1667D354681
:10679000002E00F0C680904B5878012814D15C7D03
:1067A000012C11D1D97801290ED103248B480AF08C
:1067B00047FF8A4982B2012002F094F8621E12F06B
:1067C000FF04F3D1844B5C70834C94F8330040B9E0
:1067D000A27D002A40F0BC80E37D002B40F0B88011
:1067E000F7E0617DA1B394F832208ABBA37D002B32
:1067F00000F0C0802CE0234603F8070F01210E2093
:10680000032201F081FA4FF6FF7002F041FFE7200A
:1068100002F0BAFFFFF7AAF900286F4C80F2D3808C
:1068200094F82400002840F0D480FFF763F9002892
:1068300080F2C7800221A176674C0E20A27E2346FB
:1068400003F8072F0121032201F05EFA0023A3754C
:10685000614CA07D002800F0BC80E17DC9B9FFF744
:106860000DF9002811D002DA4FF47F0007E001286B
:1068700001D15B4803E0022803D14FF0FF1002F082
:1068800007FFE72002F080FF03E0564B0122E2758C
:106890001860FFF7B7F8002840F09B805248017855
:1068A00009B102F045FF4C4B00224E481A765A7649
:1068B000DA759A750168002900F08B80012283F84F
:1068C000242086E093F82840002C3FF457AF464D33
:1068D0002A780AB102F02CFF3F4C00252846E570CB
:1068E000657584F8245084F82850A575E5752576DB
:1068F0006576A57603F00CFA642002F06FFD237D27
:106900003BB1284602F038F8012084F82800FFF750
:10691000DBFD4FF47F4002F0BBFEE72002F034FFC6
:106920002CE731463246304602F0ECF82F480AF0A8
:1069300087FE2F4F804638460AF082FE009701906E
:10694000791F03204246334602F078F8A67022E70A
:10695000FFF7FAF82048002101764176C17581756C
:106960004FF47F4002F094FEE72002B0BDE8F04112
:1069700002F00ABF642002F031FD04F1340001F09E
:1069800083F9A47E002C3FF43EAF4FF47F0002F069
:106990007FFE114CA07E00283FF42DAFE72002F0CF
:1069A000F3FE4FF4FA7002F019FDE72002F0FAFE50
:1069B0004FF4FA7002F012FDA37E581EC1B2A17608
:1069C000E7E7032137E70B4B01210022A1751A608D
:1069D0003EE702B0BDE8F0816C19002063010020A1
:1069E0000060FF00340B0020F81900206A0100202D
:1069F0006F010020380B002007B5002100910A46E6
:106A00000B460248FFF7D6FA0EBD00BFDC19002086
:106A10007047FEE7FEE7FEE7FEE770477047704706
:106A2000FEF748BC08B5024B0BB1AFF3008008BDC0
:106A30000000000008B5024B0BB1AFF3008008BDA9
:106A40000000000008B5024B0BB1FFF763FA08BD68
:106A5000155F000808B5024B0BB1FFF75CFA08BDE3
:106A6000175F000808B5024B0BB1FFF73DFB08BDEF
:106A7000E960000808B5012004F0E6FD38B1012006
:106A800004F0F2FD024B13B10020FFF75FFA08BDDE
:106A90004D5F000808B5022004F0D6FD38B1022091
:106AA00004F0E2FD024B13B10120FFF74FFA08BDDD
:106AB0004D5F000808B5042004F0C6FD78B104203D
:106AC00004F0D2FD0020064B0146188002F018FFAA
:106AD000044810210122BDE8084005F0BAB908BDFC
:106AE0000A1A0020002C014008B5082004F0ACFD73
:106AF00038B1082004F0B8FD024B13B10320FFF7B2
:106B000025FA08BD4D5F000808B5102004F09CFD73
:106B100038B1102004F0A8FD024B13B10420FFF798
:106B200015FA08BD4D5F000808B5202004F08CFD63
:106B300038B1202004F098FD0E4B13B10520FFF76B
:106B400005FA402004F080FD38B1402004F08CFDAF
:106B5000084810B10620FFF7F9F9802004F074FD11
:106B600038B1802004F080FD024911B10720FFF701
:106B7000EDF908BD4D5F000808B54FF4005004F072
:106B800063FD40B14FF4005004F06EFD174B13B19C
:106B90000D20FFF7DBF94FF4804004F055FD40B1C4
:106BA0004FF4804004F060FD104810B10E20FFF754
:106BB000CDF94FF4004004F047FD40B14FF40040E0
:106BC00004F052FD094911B10F20FFF7BFF94FF44E
:106BD000006004F039FD38B14FF4006004F044FD6A
:106BE000BDE8084002F072BB08BD00BF4D5F000861
:106BF00008B50F48102105F065F9C0B10C48102107
:106C000005F06BF9002002F027FF28B9094B1A881C
:106C10000A3290B2188008BD10210548002205F004
:106C200018F900200121BDE8084002F069BE08BD46
:106C3000002C01400A1A002008B5012004F038FF9A
:106C400030B1012004F046FFBDE8084004F014BF55
:106C500008BD000008B5022004F02AFFB0B10C4BBB
:106C600000224FF400301A7004F0FEFC012004F002
:106C70005DFE10B1012004F063FE04F0FDFE022071
:106C800004F028FFBDE8084004F0F6BE08BD00BFD0
:106C90009E19002002F0A8BA00F062B838B5144975
:106CA0000B78012B23D1134A13680BB90B7038BD35
:106CB000114C402B206881B205D94030403B206008
:106CC0001360402504E09DB2C318002023601060CB
:106CD0000A4A5018C0212A4604F0E6F90120294644
:106CE00004F0ECFA0120BDE8384004F055BA38BD94
:106CF000880C0020900C00208C0C0020880B0020B9
:106D0000094908B50020094B0122088003201A70A8
:106D100004F000FB064B0246188006484FF48871C9
:106D2000BDE8084004F0D7B9400B00203C0B002020
:106D30003E0B0020420B0020074B1868052809D1A4
:106D4000064B1A68511C052A196003D100201860EF
:106D5000FEF714BC704700BF281A0020E419002079
:106D60003A4A38B511683A4B88B23A4D18801C88B7
:106D70002988214001F4007084B244B14FF6FF55D8
:106D800015609A78511CC8B29870FFF7D5FF304C47
:106D9000304B25881A882A4002F4004188B22546E3
:106DA0001C4608B104F0BAF82A882388134003F47B
:106DB000806188B230B1254B27494FF6FF321A6007
:106DC00048688047224A234B11881B88194001F4E8
:106DD000005081B219B11D494DF6FF70086012884C
:106DE000134003F4805398B230B1184A4EF6FF7145
:106DF0001160002003F004FC154B164918880A881E
:106E0000024002F4006398B260B114490A7812B1EA
:106E100003F0D6FB02E0022003F0F2FB0B4B4FF233
:106E2000FF7018600A490B480A880388134003F46E
:106E300080718AB242B1054B4FF6FF60186007209F
:106E4000BDE8384003F0DCBB38BD00BF445C004007
:106E5000E81900201424002004020020D0020020A1
:106E6000034B987A10B1034905220A60704700BFAE
:106E7000F0230020281A0020014B04221A607047DA
:106E8000281A0020034B1A78202A01D100201870FC
:106E9000704700BFEC19002070470000212810B592
:106EA00008D111480368197801F07F02212A11D016
:106EB000022010BD2028FBD10B4B19680A780B4922
:106EC00002F07F030A4A212B0CBF0B4600231070EF
:106ED0000BB9EDE7074B044C206800248361448222
:106EE00020469847204610BD10240020456F00081A
:106EF000EC1900202D6F0008074B19680A7802F082
:106F00007F03212B05D1022801D1002070472228C0
:106F1000FBD00220704700BF1024002009B10220DE
:106F200070470128FBD808467047000020B9034B82
:106F3000082219680A82704701487047102400200F
:106F4000CC01002020B9034B082219680A8270473F
:106F50000148704710240020CC010020054B19681F
:106F6000CA78042A04D8044B03EBC20103F056BDCF
:106F70000020704710240020D4010020014903F0B4
:106F80004DBD00BFF4010020014903F047BD00BF23
:106F9000FC010020334A344BD179186810B5002425
:106FA00041728472C472204604F0A8F820464FF45F
:106FB000007104F0ABF81021204604F0B3F8402132
:106FC000204604F04FF98021204604F03BF920468A
:106FD00004F004F9254B204693F8641004F07CF982
:106FE000204604F0EAF80120214604F08FF8012041
:106FF000C02104F027F90120202104F093F801209A
:10700000214604F0ACF802204FF4C06104F07EF891
:1070100002204FF4807104F015F90220214604F09B
:107020009EF80220202104F07DF80320214604F080
:107030006DF803204FF4887104F014F90320402107
:1070400004F04AF903204FF4405104F088F803207B
:10705000214604F067F8204603F0F2FE044A0120BE
:10706000106010BDC518010810240020CC010020BC
:10707000281A002010B5FEF7CDFA054B0024186839
:10708000847203F085FA04F05BF902490C6010BDCC
:1070900010240020281A002038B504460D46FFF7BA
:1070A0002BF9204625614FF41651FFF72FF92046A2
:1070B00038BD000007B5002100910A460B46024882
:1070C000FEF778FF0EBD00BFF019002070B5064630
:1070D0000D46002428460AF0B3FA844208D2295DFE
:1070E0003046FFF7FDF8012002F078F90134F1E7AE
:1070F00070BD00002DE9F84304460F4690460D464A
:10710000C7EB05095FFA89F92046FFF7EFF8002879
:10711000FADD2046FFF7EEF8C145C6B206D10023DE
:107120002B7020460C49FFF7D1FF0AE00D2EF6D058
:107130000A2EF4D020463146FFF7D2F805F8016B4D
:10714000DEE72046FFF7D2F8002803DD2046FFF7F0
:10715000D1F8F6E7BDE8F8831C430108F0B585B027
:107160000446FFF7C3F8002840F39D802046FFF750
:10717000C1F8C0B2772867D104F11406002121229A
:10718000304604F1350509F0E1FE00214122284690
:1071900009F0DCFE04F17607002284F87620204610
:1071A0007A704249FFF792FF204631462022FFF7CE
:1071B000A1FF20463E49FFF789FF394601222046BC
:1071C000FFF798FF94F87630A3F130010329F0D847
:1071D000312B0BD120463749FFF778FF204636493F
:1071E000FFF774FF20463549FFF770FF94F87600EB
:1071F000B0F1300708D020463149FFF767FF20463D
:1072000029464022FFF776FF20462E49FFF75EFF12
:1072100023693A4630462946984720462A49FFF7CF
:1072200055FF20462949FFF751FF20462849FFF71F
:107230004DFF20462749FFF749FF20462649FFF723
:1072400045FF2046254929E069282CD1244A01AB75
:1072500010685168002503C39168204619602149D0
:10726000FFF734FF01AEAE5D300900F1300139297E
:1072700088BF00F1570106F00F062046FFF730F8EF
:1072800006F13001392988BF06F157012046013542
:10729000FFF726F80C2DE5D11349204605B0BDE8CF
:1072A000F040FFF713BF05B0F0BD00BF704101080B
:1072B00077410108A4410108DA41010805420108AB
:1072C0004B4201085642010899420108B94201089F
:1072D000EC4201081F4301085E4301088F43010887
:1072E000E8F7FF1FA54301081C430108002100F037
:1072F00004B80D4B5B58435004310C480C4B4218FA
:107300009A42FFF4F6AF0B4A00F003B8002342F8AC
:10731000043B094B9A42FFF4F9AF03F0BBF8FEF7C8
:107320009DF9FDF759FF7047204401080000002037
:10733000140B0020140B002020240020FFF7FEBFB8
:1073400001700B0A0A0C090E43708270C170043080
:1073500070470170090A41700230704743185A782B
:10736000405C00EB022188B2704710B543189A7850
:10737000DC78415C120402EB04625878521802EB8C
:10738000002010BD73B544790023022C01930FD067
:10739000032C19D0012C2BD1164D28692E4620B173
:1073A000296901A888470246B8B9B16801201BE0E5
:1073B000104DE8682E4620B1E96801A888470246CA
:1073C00058B9B16802200FE00A4D6A692E464AB1E9
:1073D0006B6901A89847024620B1A9682046BDF80C
:1073E000043003E0B16803200022134600F06CFB78
:1073F0007CBD00BF5C1B0020072810B50CD80129FC
:107400000AD8012404FA00F401FA00F0034B1A68C8
:1074100022EA040202431A6010BD00BF5C02002091
:10742000F0B5012187B00546FFF798FF00F48043CF
:10743000044698B250B3B4F5824F27D128460521AF
:10744000FFF78CFF0026074607353446BE4208D0BA
:1074500028460221FFF782FF013624180435B6B210
:10746000F4E7744B188E21188AB21A86D86B241848
:10747000DC63D96B9A6B914240F0CE8093F8400068
:10748000002800F0C9809B69992033E024F4FF4173
:1074900021F07F0290B2002800F09B8048F2100299
:1074A00094422AD00CD8B4F5004F40F2C08048F284
:1074B00002039C4217D9991C8C4240F0B88012E01C
:1074C00048F2800084420ED005D848F2400294422F
:1074D00040F0AD8051E0B4F5024F04D0B4F5084F50
:1074E00040F0A5806CE053498869002800F0948042
:1074F0008B69204600210A4669E00023EA18517989
:107500000DF803100133042BF8D1687A2B7BAA7A8B
:10751000E97A8DF804008DF807308DF805208DF894
:10752000061005F10D00002306AAD218C15C013334
:10753000042B02F8101CF7D105F11100002306AA54
:10754000D218C15C0133042B02F80C1CF7D105F1F1
:107550001500002300AAD218C15C0133042B11745A
:10756000F8D1344928798A698DF81400002A53D05B
:107570008B6920466946152229E0053500212846F9
:10758000FFF7F3FE042100902846FFF7EEFE0821E6
:1075900001902846FFF7E9FE0C2102902846FFF7EC
:1075A000E4FE102103902846FFF7DFFE214B0490F4
:1075B0009969002930D09B6920466946142206E06B
:1075C0001C48826942B38369691D2046012298479D
:1075D00022E041F203039C4205D00C339C4202D0CE
:1075E000591E8C421AD16C1D04212046FFF7BDFEA6
:1075F00039301CD12D790F480021C5622046FFF794
:10760000B4FE042105462046FFF7AFFE393003D112
:1076100028460121FFF7F0FE012009E0054A138802
:1076200099B28C4204D0B4F5805FF5D100E000201F
:1076300007B0F0BD5C1B002038B50A4C638898B2D7
:1076400008B9002038BD606801780429F9D1FFF736
:10765000E7FE01280546F4D10022628001F072FCA9
:10766000284638BD5C1B00202DE9F04704468846BB
:1076700091460025BC4B5A8890B20028FAD05E682B
:107680003178042940F0728130460121FFF766FE0F
:1076900005463046FFF7C4FE002840F05C8141F209
:1076A0000703771D9D4253D85A1E954280F0AC8047
:1076B00040F20220854200F0A78014D80C2D09D892
:1076C000082D80F0A180002D00F04581062D40F2AC
:1076D0009B80DDE00D2D00F0948040F20127BD423B
:1076E00040F039818DE041F20202954218D8B5F59B
:1076F000805F00F28980B5F5017F40F2828040F220
:1077000007218D4240F027813379002104F8013BA5
:107710003846FFF72AFE01462046FFF711FE1AE120
:1077200041F20400854200F0898040F2A080384692
:107730000021FFF71AFE042120603846FFF715FEEE
:107740006060083406F10D07224606F11D016EE067
:1077500041F21100854254D02CD841F20B029542DF
:1077600052D01CD841F209018D424DD000F28B80DD
:1077700000213846FFF7F9FD042120603846FFF765
:10778000F4FD082160603846FFF7EFFD0C21A06092
:107790003846FFF7EAFD04F10C0AE060DAE041F256
:1077A0000F00854263D035D841F20D02954240F07A
:1077B000D28043E042F206018D4222D008D8B5F5CE
:1077C000005F40F2C88042F204039D4219D983E071
:1077D00042F208039D42C0F0BE80581C854210D979
:1077E00044F20B02954240F0B6807179DFF878A13F
:1077F0003846AAF830100121FFF7B0FDAAF8320090
:10780000A9E037792770A6E038460021FFF7ADFDE3
:107810002060A0E000213846FFF7A7FDA2464AF805
:10782000040B04213846FFF7A0FD606092E057F892
:10783000043B8F4242F8043BF9D18CE000213846EA
:10784000FFF793FD042120603846FFF78EFD0821E5
:1078500060603846FFF789FD04F1080AA060E4681B
:1078600014F1390376D10121FFF7C6FD72E0002142
:107870003846FFF77AFD042120603846FFF775FD92
:107880006060083467E0337923713F68276062E005
:1078900038460021FFF769FD042120603846FFF7D4
:1078A00064FD082160603846FFF758FD0A21A0609A
:1078B0003846FFF753FDC4F80A000C3406F11107EF
:1078C000224606F1350157F8043B8F4242F8043B4B
:1078D000F9D1388810803EE00022B7187879A0549A
:1078E0000132042AF9D106F109070023F95CE018F6
:1078F0000133042B0171F9D106F10D070020395C29
:107900002218013004281172F9D106F11107002361
:10791000F95CE2180133042B1173F9D106F115005B
:107920000022875CA1180132042A0F74F9D106F1F4
:1079300019000023C75CE1180133062B0F75F9D13C
:1079400006F11F000021475C62180131202997765B
:10795000F9D100E05446044B188882B2954225D1F3
:107960000021198022E000BF5C1B0020304603216B
:10797000B778FFF7F3FC8246B8F1000F0CD0042172
:10798000701DFFF7F2FC0346C9F8000006F115016F
:107990004046DAB209F054F97A1DB1182046C7EB17
:1079A0000A0209F04DF90F490020C8860D4F002347
:1079B0007B8001F0C7FA3078042805D1B5F5805FE7
:1079C00002D13046FFF7DEFC3A8891B200297FF4FD
:1079D00051AE044BD88E80B200287FF44BAEBDE888
:1079E000F08700BF5C1B002007284FF0010308D878
:1079F00003FA00F004490A6810420CBF002001207D
:107A000070471846704700BF5C020020064B10B557
:107A1000064C188001202070084600210A46FFF716
:107A200023FE0021217010BD5C1B0020641A002081
:107A300038B5054C0123E386044C1D462370FFF73F
:107A400013FE0020207038BD5C1B0020641A00204B
:107A500038B50346154601224A710C46881D194661
:107A6000FFF777FC291D0570204601F02DFB002053
:107A700038BD38B5BDF814500C469B18A071E818F5
:107A800085B202216171E271294604F10800FFF715
:107A900060FC6A1D204691B201F016FB002038BD43
:107AA00038B59B180C469DB202216171A071E2713C
:107AB000294604F10800FFF74CFC6A1D204691B2EC
:107AC000BDE8384001F000BB2DE9F0471D4605F147
:107AD000020A032301F107091FFA8AFA88714B7120
:107AE0000C46484651461746FFF733FCB5F57A7FFA
:107AF000804613D82946FFF72CFC29464046FFF75D
:107B000028FC394604F10B002A4609F099F8A91D12
:107B1000204689B2BDE8F04701F0D6BA4FF47A7634
:107B2000B5FBF6F10AEB410291B2FFF712FC3146C8
:107B30004046FFF70EFC394604F10B00324609F0CF
:107B40007FF8A5F57A75204640F2EE31ADB2BF1947
:107B500001F0BAFAB5F57A7F05D9A5F57A7085B244
:107B60004FF47A7601E02E460025A046394628F8E3
:107B7000056F4846324609F063F8B31C404699B297
:107B8000BF1901F0A1FA002DE4D1BDE8F087000093
:107B9000F7B51A4C1E46A468FF238DF80730002560
:107BA000475D63190135042D5F72F9D100200D5C2A
:107BB0002318013004285D73F9D10021505C63184B
:107BC000013104295874F9D104F115000021FFF79F
:107BD000B7FB0022B35C83540132042AFAD1214658
:107BE000142242F20100FFF733FF42F201000DF1CF
:107BF0000701FFF70BFF9DF90700FEBD5C1B00208E
:107C00002DE9F34106460C461E4831681546D0F86A
:107C100008804A1E1F46FF23122A8DF8073008F1FC
:107C2000090001D81423336021684A1E122A01D8A2
:107C30001423236029684A1E122A01D814232B60BA
:107C400039684A1E122A01D814233B603168FFF7B5
:107C500077FB2168FFF774FB2968FFF771FB396830
:107C6000FFF76EFB4146142242F20900FFF7F0FED7
:107C700042F209000DF10701FFF7C8FE9DF9070068
:107C8000BDE8FC815C1B002038B5074B42F20504BF
:107C90000546996820460022FFF7DAFE204629466D
:107CA000BDE83840FFF7B2BE5C1B00202DE9F34170
:107CB000864614480D46866871461F4602ACFF236F
:107CC00006F1090004F8013D9046FFF739FB29460B
:107CD000FFF736FB40F201254146FFF731FB0C224E
:107CE00031462846FFF7B4FE28462146FFF78EFEB0
:107CF000002138460A46FFF79BFE9DF80700BDE8C5
:107D0000FC8100BF5C1B00202DE9F341864616482C
:107D10000C4686687146984602AD4FF0FF3306F177
:107D20000A0045F8043D1746FFF70AFB0C21FFF750
:107D300007FB2146FFF704FB3946FFF701FB4146ED
:107D4000224606F11A0008F07BFF902031461022EF
:107D5000A3B2FFF7A5FE40F202202946FFF756FE28
:107D60000198BDE8FC8100BF5C1B002037B50B4BC0
:107D700040F207250446996800222846FFF768FE6E
:107D800028466946FFF742FE9DF803009DF804105F
:107D9000207061709DF800003EBD00BF5C1B00209C
:107DA00037B50D4A034695680C4605F1090019469A
:107DB000FFF7C6FA214640F20324FFF7C1FA29462D
:107DC00008222046FFF744FE20460DF10601FFF78A
:107DD0001DFEBDF806003EBD5C1B00202DE9F043F2
:107DE0000023CA5CC2540133102BFAD10022334B5A
:107DF000467B991891F8018004789F19F97A88EAEE
:107E00000405847B85EA01081D194178EF7A90F812
:107E10000CC04F40C17B80F810805D1895F80B9026
:107E20008578634489EA050593F80B90C378477415
:107E300089EA030390F80490FFB288EA090890F8F1
:107E40000590857487EA090790F80690EDB285EAF7
:107E5000090590F80790C374DBB283EA090390F830
:107E6000089080F814805FFA88F888EA090890F88A
:107E700009904775FFB287EA090790F80A9085755F
:107E8000EDB285EA090590F80B90C375DBB283EA81
:107E9000090388EA0C0C7E406C405940013280F89E
:107EA000188047768576C37680F81CC0467784773D
:107EB000C17710300A2A9AD1BDE8F0831A19010857
:107EC00010F0800F4FEA400018BF80F01B00C0B2D6
:107ED000704700002DE9F04F037891F8A0A0044608
:107EE0008AEA030A80F800A091F8A1204078A778D8
:107EF00082EA0005657091F8A260E07886EA0703DF
:107F0000A37091F8A32097B0059582EA0005E5706B
:107F100091F8A4902679069389EA060984F80490DA
:107F200091F8A5706379079587EA0302627191F869
:107F3000A600A579E37980EA0506A67191F8A770F5
:107F40000C9287EA030B84F807B0227A91F8A88094
:107F5000607A88EA020884F8088091F8A970089687
:107F60004740677291F8AA50A67AE07A85EA06033C
:107F7000A37291F8AB20267B82EA0005E57291F8A6
:107F8000ACC009938CEA060C84F80CC091F8ADE003
:107F9000637BA27B8EEA030E84F80DE00D9591F8C9
:107FA000AE50E07B5540A57391F8AF204B4B42405B
:107FB000E2739A4491F890009AF80B619944464014
:107FC000267091F8940099F80BA198448AEA00066B
:107FD000267191F8980098F80B919C4489EA000664
:107FE00026729CF80BA191F89C009E448AEA000638
:107FF0002673DF199EF80B8197F80BC191F8910059
:1080000091F89D6088EA00098CEA060060730C9F75
:10801000DDF814A0DE1996F80B0191F89970DDF8DF
:10802000208080EA0706667203EB0A0091F89560EB
:1080300090F80B7184F8019087EA0600607103EBF9
:108040000800DDF818E090F80B91099803EB0E0793
:1080500003EB000E9EF80BC191F8920091F89A6024
:1080600097F80B718CEA000A77405D1991F89E60D1
:1080700084F802A091F8960095F80B81A772079FEB
:1080800088EA000589EA0606A673A571DE1996F846
:108090000B0191F89F5003EB0B0791F8936045405B
:1080A00097F80B019A1880EA06070D98E7701E18DA
:1080B00096F80B7191F897004FF0090B87EA0006CC
:1080C000E67191F89B3092F80B71E57387EA030033
:1080D000E0720D46CDF840B002E000BF1A19010869
:1080E00094F80090A77887EA0900FFF7E9FEFFF708
:1080F000E7FE94F80180E678824686EA0800FFF7FA
:10810000DFFEFFF7DDFE8AEA070380EA080227792F
:108110007040A6798AEA09015FFA80F886EA0700CA
:108120005FFA82FB5FFA83FA5FFA81F9039702969E
:10813000FFF7C6FEFFF7C4FEE6796779014686EAD7
:1081400007000491FFF7BCFEFFF7BAFE039B049AF9
:1081500094F808C082EA0301CBB2029947404A4032
:10816000A17A7040C6B2059381EA0C00D3B20291A5
:10817000CDF804C006930796FFF7A2FEFFF7A0FE16
:10818000637AE67A024686EA030003930492FFF7D5
:1081900097FEFFF795FE049ADDF804C0039B82EA80
:1081A0000C015FFA81FC80EA0301CBB202990993CA
:1081B0004A40D3B2CDF820C00A9394F80CC0A17BFA
:1081C0007040C6B281EA0C000291CDF804C00B9653
:1081D000FFF776FEFFF774FE637BE67B024686EAD6
:1081E000030003930492FFF76BFEFFF769FEDDF8CF
:1081F00004C0049A039B82EA0C015FFA81FC80EAC6
:108200000301CBB2029970404A40C6B288EA0A0123
:108210008BEA09000D93D3B20E930291CDF830C0D2
:108220000F9681EA0006FFF74BFE89EA000286EA14
:10823000020C5FFA8CFC8AEA0B0084F800C0CDF8CF
:1082400004C0FFF73DFE8BEA000386EA030B0299A8
:108250005FFA8BFC84F801C00846CDF844C0FFF7F4
:108260002FFE8AEA000286EA020A5FFA8AFB88EA9F
:10827000090084F802B0CDF848B0FFF721FE88EA83
:108280000000DDF818900599079A4640FFB2F6B253
:1082900082EA090887EA0100E670139688EA000678
:1082A000FFF70EFE059B584086EA0001CAB2484619
:1082B000227178401492FFF703FE474086EA0703D5
:1082C000D8B2159060714046FFF7FAFD89EA0001C7
:1082D000059B86EA01020798D7B25840A771069716
:1082E000FFF7EEFD0799089A48404640F6B20A9F0C
:1082F0000596E67109980B9E50407E4086EA00077D
:10830000FFF7DEFDDDF820A08AEA000387EA030C10
:108310005FFA8CF884F8088009990A984840FFF7BA
:10832000CFFD099A504087EA000B5FFA8BF930467F
:1083300084F80990FFF7C4FD0A9E524686EA0003BE
:1083400087EA03010B985FFA81FB504084F80AB07A
:10835000FFF7B6FDDDF82CA00E998AEA00000C9E0E
:1083600047400F9B0D98FFB24B407040E77283EA85
:10837000000A0293FFF7A4FD0C9A0D9B50408AEA75
:1083800000060E98F6B226735840FFF799FD0D9936
:10839000029B81EA00028AEA0200C1B261731846B8
:1083A0000391FFF78DFD0E9A0C9B50408AEA000165
:1083B0000F98CAB2A27358400492FFF781FD0F993B
:1083C000514B48408AEA000C5FFA8CFADDF804C091
:1083D00084F80FA003EB0C0295F8800092F80B11C3
:1083E000DDF850C081EA0002227003EB0C0195F821
:1083F000840091F80B219E1982EA000103EB080228
:10840000217195F8880092F80BC196F80B218CEA3F
:108410000001217295F88C00039E82EA000121730D
:108420009A1995F8811092F80B0103EB090680EA7E
:10843000010295F88D0096F80B11DDF844C081EA31
:10844000000615996673581890F80B6195F8891015
:10845000DF1986EA0100607203EB0C0695F88500CF
:1084600096F80B116270129A81EA000666719918EB
:10847000DDF818C095F88A6091F80B0103EB0C0247
:1084800095F88E10704092F80B6103EB0B0271406F
:1084900092F80BC195F882608CEA0602049EA270E5
:1084A0009A1992F80B6195F886205640A671A07231
:1084B0001398A173191895F88F2091F80B61DDF8C6
:1084C00014C0724003EB0C0695F8831096F80B016C
:1084D00053444840E07095F8871097F80B014840E6
:1084E000E07195F88B0093F80B11E273109A81EA12
:1084F0000003511E103D11F0FF00E37210907FF455
:10850000EFAD17B0BDE8F08F1A19010838B5054C6A
:1085100005462046FFF762FC28462146BDE8384064
:10852000FFF7D8BC651A0020034610210C2000225A
:10853000FFF7BCBB034610210C200022FFF7E4BB71
:1085400038B505460E4CE36A4BB107F059FFE36AB4
:1085500003600020E06207F053FF006838BD284642
:10856000FFF742FA40B9228E91B20029EAD0238E59
:108570005A1E91B2218638BD4FF0FF3038BD00BF82
:108580005C1B0020F7B5034614480D468668194663
:10859000174602AC4FF0FF3206F1090044F8042DF3
:1085A000FEF7CEFE2946FEF7CBFE41F20105394625
:1085B000FEF7C6FE0C2231462846FFF749FA21464F
:1085C0002846FFF723FA07F01BFF019901600846D0
:1085D0000021FEF711FF0198FEBD00BF5C1B0020CB
:1085E000F7B5054610484FF0FF33876802AC2946BF
:1085F00041F20B0607F1090044F8043DFEF7A0FE26
:10860000042239463046FFF723FA21463046FFF769
:10861000FDF907F0F5FE0199016028460121FEF7FA
:10862000EBFE0198FEBD00BF5C1B002037B5034682
:1086300013484FF0FF3284680D4604F109001946D3
:108640000192FEF77DFE0821FEF77AFE0821FEF773
:1086500077FE0023E95CC1540133082BFAD11422C0
:10866000214641F20700FFF7F3F901A941F20700A3
:10867000FFF7CCF907F0C4FE019A026010463EBD38
:108680005C1B00202DE9FF411D46314B8646D3F887
:1086900008800F4608F10900714616460A9CFEF74D
:1086A0004FFE1421FEF74CFE1421FEF749FE142163
:1086B000FEF746FE1421FEF743FED4F1010138BF58
:1086C0000021FEF73DFE0FB1396800E03946FEF7A4
:1086D00037FE0EB1316800E03146FEF731FE0DB1D4
:1086E000296800E02946FEF72BFE74B1216839B9EC
:1086F000636841F287329342DCBF41F288336360A2
:10870000FEF71EFE6168FEF71BFE2C22414641F279
:108710000800FFF79DF941F208006946FFF776F976
:10872000009B002B09DB0FB1019838600EB1029A53
:10873000326045B10399296005E007F061FE0099B8
:108740004FF0FF330160184604B0BDE8F08100BF70
:108750005C1B00202DE9FF419846154B07469D689C
:1087600014460E4605F109003946FEF7E9FD21469B
:10877000FEF7E6FD4146FEF7E3FDBDF830400C2272
:1087800029462046FFF764F9204601A9FFF73EF984
:108790000298002804DD30460A990B9AFFF748F941
:1087A00007F02EFE02990160084604B0BDE8F08192
:1087B0005C1B00201FB500240094019441F20404C6
:1087C0000294FFF7C7FF04B010BD00002DE9F04F81
:1087D000DFF8E09089B01446012289F80020039167
:1087E0009B46139E149D0290FFF7AAFEDDF808C079
:1087F000002859D12E4B89F80000996B4A1C9A63C6
:10880000D3F80890812D09F10A0307D0832D0AD1EE
:1088100004F1080A09F12208182704E009F11A08EE
:1088200010270646129061461846FEF789FD391F4B
:10883000FEF786FD2146FEF783FD5946FEF780FDD3
:10884000832D05D15146FEF77BFD0821FEF778FD0B
:108850000022A24205DA0398815C08F80210013276
:10886000F7E7002CA8BFA044832D0ED01299B6B212
:1088700000910196E8B249463A46A3B2FFF7F9F8EB
:10888000832D0BD141F20F000AE00020B042EDDA57
:10889000129A135C08F800300130F7E741F2030048
:1088A00005A9FFF7B3F8204609B0BDE8F08F00BF77
:1088B0005C1B0020641A00201FB500240094019462
:1088C00081240294FFF782FF04B010BD1FB5069CFF
:1088D0000094079C019483240294FFF777FF04B06F
:1088E00010BD0000202A73B503460E46144622D858
:1088F000124A1946956805F10900FEF721FD082185
:10890000FEF71EFD2146FEF71BFD0022A24203DA00
:10891000B15C81540132F9E704F10C032946DAB263
:1089200041F21100FFF794F841F2110001A9FFF79D
:108930006DF8019801E04FF0FF307CBD5C1B00201A
:10894000024B01225A805860FEF776BE5C1B002065
:1089500010B5084CE16022616361029B0399E361F9
:10896000049A059B21626262A362A061012084F8DF
:10897000400010BD5C1B002070B5224C054622480B
:108980000023A363E363238023866386A386E386B1
:10899000E36263806360A0601C4800F0B1FAE169A3
:1089A0008847A26A0646012090470EB3E1698847CE
:1089B0000028FBD1134C002D14BF02250025A1680F
:1089C00001224D724FF48040FFF742F800214FF42E
:1089D0008040FFF71BF8A168002244F20B00FFF76C
:1089E00037F844F20B000021BDE87040FFF70EB8E5
:1089F000E36998470028FBD0E06980470028FBD155
:108A0000D8E700BF5C1B0020C41B00204189000880
:108A100038B5094C0020A36A98472546E869064CFA
:108A200080470028FAD0A16809B10022A260BDE801
:108A3000384000F079BA00BF5C1B00202DE9F04FF0
:108A400083462F4885B0D0F80890144600259A46F2
:108A500088464FF0FF331C2109F1090001930F9E56
:108A60000E9F0295ADF80C50FEF76AFC2146FEF70A
:108A700067FC5946FEF764FC04F11001FEF760FC48
:108A80003146FEF75DFC2946FEF763FCBAF1000FA4
:108A900008D01AF8052042550135062DF9D10630C7
:108AA000002207E0534602AA995CC1540133062B09
:108AB000F9D1F4E7A24204DA18F802108154013225
:108AC000F8E7002CA8BF00193EB100232FB1B34234
:108AD00003DAFA5CC2540133F9E71C34A319DAB2A1
:108AE00049460120FEF7B4FF01A90120FEF78EFFE1
:108AF00007F086FC01990160084605B0BDE8F08FDB
:108B00005C1B0020F7B503460F480E4685681946E2
:108B1000174602AC4FF0FF3205F1090044F8042D6E
:108B2000FEF70EFC3146FEF70BFC3946FEF708FC5B
:108B300029460C220420FEF78BFF04202146FEF775
:108B400065FF0198FEBD00BF5C1B00202DE9F04FC2
:108B50008346714885B0D0F808900D4614465946B2
:108B6000002209F109009A460E9F0F9E0292ADF86D
:108B70000C20FEF7E5FBBBF1030F00F2BE80DFE83F
:108B80000BF0022F76761421FEF7DAFB2146FEF772
:108B9000D7FB0021FEF7DDFBBAF1000F07D0002262
:108BA0001AF8021081540132062AF9D106E0534620
:108BB00002A95A5CC2540133062BF9D1063039465A
:108BC000FEF7BEFB4FF00008A04506D015F80830B0
:108BD00000F8083008F10108F6E708F118008AE00B
:108BE0002021FEF7ADFB2146FEF7AAFB0021FEF790
:108BF000B0FBBAF1000F07D000221AF8021081541E
:108C00000132062AF9D106E0534602AA995CC15402
:108C10000133062BF9D139460630FEF791FB04F1FA
:108C20000C01FEF78DFB3146FEF78AFB1099FEF72B
:108C300087FB0022A24203D0AF5C87540132F9E7E0
:108C4000001900220421129D8718AD180023B34299
:108C500005D015F803E007F803E00133F7E7013921
:108C60001A44F0D104F1240C0CEB830043E02821DA
:108C7000FEF766FB2146FEF763FB0021FEF769FB6A
:108C8000BAF1000F07D000221AF802108154013205
:108C9000062AF9D106E0534602A95A5CC2540133B0
:108CA000062BF9D139460630FEF74AFB3146FEF76E
:108CB00047FB1099FEF744FB1199FEF741FB04F1C5
:108CC0000801FEF73DFB1399FEF73AFB0021A14294
:108CD00003D06A5C42540131F9E70019002313996B
:108CE0008B4204D0129AD15CC1540133F7E704F1EE
:108CF0002C0808EB03001FFA80F849465FFA88F257
:108D00000520FEF7A5FE052001A9FEF77FFE0198CC
:108D100005B0BDE8F08F00BF5C1B002037B50B4BE2
:108D200001469D6802AC05F10900FEF709FB4FF012
:108D3000FF3044F8040D294604220620FEF788FE81
:108D400006202146FEF762FE01983EBD5C1B002016
:108D500037B548F2080248F2080102408A42034649
:108D600013490BD10020934281F840001FD023F417
:108D7000004424F0080545F4004302E0012081F896
:108D800040000B494FF0FF328D6802AC194605F1E7
:108D9000090044F8042DFEF7D3FA294604220820DE
:108DA000FEF756FE08202146FEF730FE01983EBD34
:108DB0005C1B002073B50C4B01469D684FF0FF36DD
:108DC00002AC05F109000196FEF7BAFA44F8046D09
:108DD000294604220A20FEF73BFE0A202146FEF720
:108DE00015FE01987CBD00BF5C1B002007B50D4A35
:108DF0004FF0FF330193916890B154234370037097
:108E000083704B7242788A7280780322C8720C2079
:108E1000FEF71EFE0C2001A9FEF7F8FD019800E008
:108E200018460EBD5C1B00202DE9F041314886B08C
:108E3000FFF77AFB0546002858D12F4E2A460D2011
:108E400043213346FEF732FF054600284ED13778DE
:108E5000284907F1030808EB06042046FFF756FBF4
:108E60003378F6187078102804D904F110002149DD
:108E7000FFF74CFBE17F204A21B112F808301F2B8D
:108E800004D101E012F80830013400E0202310780A
:108E900011188A78032A29D8DFE802F0020E19197E
:108EA0000020012500950190029003900490059008
:108EB00012493A46034616E001208DE809000023D6
:108EC00002930393049405930C493A460BE0012066
:108ED00018211E2202258DE82700084905930494D5
:108EE00003203A460023FFF731FE0546284606B028
:108EF000BDE8F081A01B0020181B0020191B0020DA
:108F000008B5064B00221860054906489A601961A9
:108F1000DA80DA609A80036A984708BDB01B0020A7
:108F2000C41F00205C1B002008B5044B1A690AB15D
:108F30000020186102494B6A984708BDB01B002009
:108F40005C1B0020024B4FF480725A60704700BFD8
:108F500000E100E008B5074B4FF48072C3F88420AD
:108F600000F07AFE044902200A6988600B68501DEF
:108F7000984708BD00E100E0B01B002070B5064630
:108F8000002014460D4600F057FE012EA4B207D172
:108F900030462946224600F0D7FD0020124907E05E
:108FA000124B01201969224600F0CEFD002029460F
:108FB000224600F0C9FD0E480221012202F0DFFA2C
:108FC000012000F039FE0A4802F0E1FA0028FAD147
:108FD000084802F0DCFA0028FAD10748802102F0A4
:108FE000BCFD0028F9D170BD60020020B01B00203C
:108FF00058000240440002400038004003460A4640
:1090000001201946FFF7BABF70B506460020144686
:109010000D4600F011FE012EA4B207D130462946BC
:10902000224600F091FD0020104907E0104B01207E
:109030001969224600F088FD00202946224600F0EA
:1090400083FD012000F0F8FD0A4802F0A0FA002894
:10905000FAD1094802F09BFA0028FAD1074880218A
:1090600002F07BFD0028F9D170BD00BF6002002036
:10907000B01B00205800024044000240003800406D
:1090800003460A4600201946FFF7BEBF38B504461E
:109090000D4600F0FDFE322000F0ACF9214604221E
:1090A0000020FFF7B1FF322000F0A4F90020211DBD
:1090B0002A1FFFF7A9FF034B02229A6000F0CCFDA4
:1090C000002038BDB01B0020F8B501F001060446B1
:1090D00086F001000D18012300262370C5F3072236
:1090E0001B4BE67026716270A57005319D680818EB
:1090F00086B215B99A68012AFCD19968144D0129E4
:1091000007D120463146FFF7C1FFA8680228FCD1ED
:109110001CE0AF68022FFCD10E48802102F01DFD3B
:109120000028F9D10C4DE86980472F460028F9D076
:10913000074D0323AB60EC60AE8000F0A9FEFA6936
:1091400090470028FBD0A9680229FCD10020F8BD77
:10915000B01B0020003800405C1B002070B5184E8A
:1091600035696B79022B08D0042B25D1287A441E4F
:1091700014F0010F18BF044614E0681D0321FEF728
:10918000EDF8B0F5806F044608DB05F10A004FF4F6
:1091900080610724FFF732FFB4600EE0C30701D4FB
:1091A000441C00E024B105F10A00A1B2FFF726FF3C
:1091B000034908228A6000E00024204670BD00BFF9
:1091C000B01B0020024B012019690A22FFF7D6BE0E
:1091D000B01B002008B5FFF7C1FF18B9BDE8084073
:1091E000FFF7B8BE08BD000070B5364C4FF4003034
:1091F000266902F0CFF905464FF4005002F0CAF993
:10920000A368062B0BD1002D5BD0002859D04FF45A
:10921000083002F0CDF9BDE87040FFF7DBBFA16870
:1092200007291BD100284CD04FF4083002F0C0F9B8
:109230000321701DFEF792F8A0F58064A1B2214CC5
:10924000CA0758BFA0F2FF31206958BF89B200F2A7
:109250000A40FFF7D3FE0823A36070BDA268082A66
:1092600009D100282DD04FF4083002F0A1F9BDE853
:109270007040FFF76FBEA068052811D1002D20D0E7
:109280001148802102F069FC0028F9D14FF4083020
:1092900002F08EF900F0E0FC0A4A0221916070BDF4
:1092A000A368042B0DD165B1A088E2680521A0F563
:1092B0008063A16002F5806099B2BDE87040FFF75D
:1092C000DFBE70BDB01B00200038004008B5174B52
:1092D000D8698047002827D1154B9A6812B9012018
:1092E000986008BD9968022907D106229A6000F0AB
:1092F000CFFDBDE80840FFF765BF9A68032A13D188
:109300009A88B2F5806F06D805219960D968BDE8C2
:109310000840FFF733BE04209860D8684FF480619E
:10932000BDE80840FFF7ACBE08BD00BF5C1B0020D5
:10933000B01B0020BFF34F8F054A064BD16801F4E4
:10934000E06040EA0301D160BFF34F8FFEE700BF4A
:1093500000ED00E00400FA050D4B0E4A197839B90A
:10936000D88881B21187188981B291879B8806E0DD
:10937000D88981B21187188A81B291879B89064862
:109380009BB29386FF21632202704170704700BF39
:10939000F8190020002C0140680200204FF44070B2
:1093A00001F0DEBF0A4B4FF47A701A68094BB2FB2A
:1093B000F0F109484A1EF0215A6080F8231000227B
:1093C00007219A601960D02380F82330704700BFCE
:1093D000BC02002010E000E000ED00E082B001904F
:1093E000019A034B1A6018680028FCD102B070473C
:1093F000D023002013B50749074B01900C6807499B
:1094000001985A68B4FBF1F100FB01205A689042C0
:10941000FCD81CBDBC020020001000E040420F0040
:1094200030B54FF4003085B002F01EF908204FF43B
:109430000033002501248DF80D00684402938DF857
:109440000C508DF80E4002F0BDF8032101A88DF8F4
:1094500004108DF805108DF806508DF8074001F0C6
:1094600089FF042329220DEB03008DF804208DF8D9
:1094700005308DF806508DF8074001F07BFF022083
:1094800002F054FA50B1022002F05AFA02F0FEFA49
:1094900024204FF6FF7101F0ABFF27E0242001F0FC
:1094A000B5FF4AF2A551884201D102F02BFA012002
:1094B00002F054FA412002F093FA0028FAD04FF457
:1094C000807002F05BFA012002F060FA02F0DEFA2E
:1094D00002F0D2FA0320012102F09EFA02F0CCFA47
:1094E00047F6FF7002F0B8FA02F0C6FA05B030BDD8
:1094F00010B5044645F2555002F0DCF9062002F0A2
:10950000DFF946F26060844228BF044628216143A7
:10951000C1F30F2002F0DAF9002002F0CBF902F0DB
:10952000DBF9BDE8104002F0DFB90000082814D8CC
:10953000012908D10B490C4A01EB8003596832F824
:10954000100008610BE051B9064B074A03EB80019C
:109550004B6832F81000586101E0FF2300E000235F
:1095600058B2704768020020281B010873B50E4EE0
:109570008500731904460121186902F019FA0B4B92
:1095800036F8140010215D19ADF804008DF80710AD
:109590000322686801A98DF8062002F0E5F820464C
:1095A0000021FFF7C3FF7CBD281B010868020020D3
:1095B00070B5012188B04FF4006002F0F9F9314B29
:1095C00031481C686026B4FBF0F1304C01A88DB224
:1095D00002F012FC01A802F00FFC42F20F7201A986
:1095E000ADF8045020460025ADF80820ADF80A502B
:1095F000ADF8065002F0B8FA04A802F006FC022307
:10960000ADF810602046012604A9ADF81830ADF879
:109610001260ADF81650ADF81C5002F0EFFA20467B
:10962000294602F02BFC204604A902F02BFB204621
:10963000294602F02BFC204604A902F067FB2046D5
:10964000294602F02DFC204604A9ADF81050ADF8D3
:109650001260ADF81650ADF8185002F099FB204694
:10966000294602F025FC2046314602F0FBFB20464D
:10967000314602F0D4FB2046314602F0DCFB08B054
:1096800070BD00BFBC02002040420F00002C014012
:1096900030B51049104B8C8D93F82420A5B26C1C6A
:1096A0005443C0F307435C430C4B250CDD808C8D89
:1096B000A5B26C1C5443C0F307256C43240C1C81D9
:1096C000898DC0B289B2013148434243120C9A805D
:1096D00030BD00BF002C014068020020F8190020B6
:1096E00030B51049104B8C8D93F82420A5B26C1C1A
:1096F0005443C0F307435C430C4B250CDD818C8D38
:10970000A5B26C1C5443C0F307256C43240C1C8287
:10971000898DC0B289B2013148434243120C9A810B
:1097200030BD00BF002C014068020020F819002065
:10973000024B00221A70FFF70FBE00BFF81900207D
:1097400037B50F4D044605EB8003186B012105EB7F
:10975000440502F02DF9B5F84000ADF804000CB94D
:10976000102100E01821074B8DF8071003EB84044B
:109770000322A06A01A98DF8062001F0F5FF3EBD85
:10978000281B01086802002018B1E72807D1FFF75D
:10979000E3BD034B4FF40052986A02617047704773
:1097A0006802002058B1E7280FD1084A0023084872
:1097B00013879387938601220370427005E0044B60
:1097C0004FF40050996A486170477047002C01407F
:1097D00068020020024B0122E7201A70FFF7E2BF67
:1097E000F819002010B1E72840D106E020498B6A23
:1097F000DA6882F40050D86070471E4A1E4B117818
:10980000C1B9188F80B208B1198702E0D1888AB235
:109810001A879B8F184899B209B1002102E0154AB6
:10982000138999B281871449888E82B2C2B9114BCB
:10983000988819E0188F81B209B1002001E0D2891F
:1098400090B218879B8F0C499AB20AB1002202E0AD
:109850000848038A9AB28A870749888E83B20BB177
:10986000002002E0034A908980B28886704700BFDA
:1098700068020020F8190020002C014010B51D4A94
:1098800013780BB9012102E0632B01D1FF21517044
:109890005178E7280B44DBB2137029D1164A6320B4
:1098A000147816497CB9D488A4B25C43B4FBF0F4B4
:1098B000A4B20C871489A4B25C43B4FBF0F4A4B244
:1098C0008C8792880EE0D489A4B25C43B4FBF0F498
:1098D000A4B20C87148AA4B25C43B4FBF0F4A4B223
:1098E0008C87928992B25343B3FBF0F398B2888687
:1098F00010BD00BF68020020F8190020002C0140B4
:1099000073B5104C0E4604EB400494F84C10054619
:1099100094F8480001F0B4FFB4F85040204601F03C
:109920008DFE09480023451995F8381068460094C3
:109930008DF804308DF805108DF8066001F042FEB8
:109940007CBD00BF281B010868020020F7B5224E2D
:109950008700F3190546586D0C4640F001000121BF
:1099600002F026F81D4B06EB45065A1992F83A10FC
:10997000B6F85C0002AADF198DF8031022F8080D72
:109980006946F86B01F0F0FE012C24D11021002271
:1099900013481B2702F05DFA05238DF8047001A817
:1099A00000278DF805308DF806708DF8074001F01E
:1099B000E1FCB6F8601006208DF8050001A88DF8CE
:1099C00004108DF806708DF8074001F0D3FC28468E
:1099D0002146FFF795FFFEBD281B01086802002005
:1099E000002C01401A4B1B49DA6810B542F0807018
:1099F0000024D8604C600B684FF0C05043F0010267
:109A00000A60012101F0E0FF012001F075FFFFF77E
:109A1000C5FC0120014601F0CBFFE0B20134FFF7A5
:109A2000A5FD082CF9D1FFF7C3FD0020FFF788FE44
:109A30000120FFF785FE0220FFF782FE0320FFF7DB
:109A40007FFE00200121BDE81040FFF77FBF00BF6F
:109A5000F0ED00E0001000E0054A064B02EB80014B
:109A600003EB4002C86BB2F85C1001F0CDBE00BF42
:109A700068020020281B0108024B03EB4000418ACA
:109A800088B27047F8190020024B002203EB400017
:109A900042827047F819002010B5082086B00121D5
:109AA00001F086FF264C4FF48040012101F08CFF2D
:109AB000032018214FF400538DF802008DF8031095
:109AC00020466946ADF8003001F04EFE4FF40042EA
:109AD00020466946ADF8002001F046FE04204FF410
:109AE00080438DF8030069462046ADF8003001F050
:109AF0003BFE0021ADF804104FF48272ADF808105F
:109B0000ADF80A104FF40070ADF81210A4F55444EB
:109B100007210123ADF80620ADF80E000822ADF8AC
:109B20001410204601A9ADF80C30ADF8102001F05A
:109B3000DBFF2388034A98B2108006B010BD00BF37
:109B4000000C0140DE23002070B5044601208CB0DB
:109B50000E460146154601F01FFF124B00208022E1
:109B60004FF44051012C0193029605900692079004
:109B7000089009900A910B9006D103900A48049529
:109B800001F05AFC084807E04CB91023074803933A
:109B9000049501F051FC054801A901F0C5FC0CB089
:109BA00070BD00BF0C380040440002405800024025
:109BB00073B50F230124002501A88DF804308DF81A
:109BC00005508DF80650174E8DF8074001F0D2FB76
:109BD000FFF762FF20462A461349FFF7B5FF2846E4
:109BE0002A461249124DFFF7AFFF304602212246A6
:109BF00001F0C5FC28462146224601F0A0FF22467E
:109C00002846022101F09BFF2846214601F08BFFE8
:109C10002146084801F0A8FC3046214601F0A4FC8A
:109C20007CBD00BF58000240C41F0020C41B0020A0
:109C3000003800404400024010B504462146044864
:109C400001F092FC03482146BDE8104001F08CBCB5
:109C5000440002405800024002484FF4805101F095
:109C6000D9BD00BF000C014008B54FF400610248A7
:109C700001F0CAFD08BD00BF000C014030B509204D
:109C800085B0012101F094FE4FF400644823694639
:109C900014488DF80330ADF8004001F065FD0B214C
:109CA000012001F0EDFD204601F0C8FC0C200294DB
:109CB000002501248DF80D0002A88DF80C508DF8B8
:109CC0000E4001F07FFC282101A88DF804108DF8CA
:109CD00005408DF806508DF8074001F04BFB05B0AC
:109CE00030BD00BF000C01401FB52823002401A88F
:109CF0008DF804308DF8074001F03CFB4FF4006014
:109D0000029002A88DF80E4001F05CFC1FBD00001F
:109D100020B105484FF4807101F07CBD02484FF43A
:109D2000807101F079BD00BF000C014013B508201F
:109D300001210F4C01F03CFE032010214FF4805311
:109D40008DF806008DF80710204601A9ADF8043003
:109D500001F00AFDFFF780FF4FF48072204601A951
:109D6000ADF8042001F000FD0020FFF7D1FF1CBD7D
:109D7000000C014010B50B4C238823F04000010477
:109D80000A0C2280FFF768FF074B188881B207484A
:109D900041F040024FF400712280BDE8104001F014
:109DA0003BBD00BF00380040DC230020000C014018
:109DB00002484FF4007101F02DBD00BF000C0140BE
:109DC00070B5082086B0012101F0F2FD2E4C012172
:109DD0004FF4804001F0F8FD18204FF400530326A3
:109DE0008DF8030069462046ADF800308DF802601A
:109DF00001F0BAFC4FF40041ADF80010204669466E
:109E000001F0B2FC04254FF4804220466946ADF8CB
:109E100000208DF8035001F0A7FC4FF400751023CB
:109E2000204669468DF80330A4F55444ADF800503F
:109E30008DF8026001F098FCFFF7BAFF00204FF4A4
:109E400082710822ADF80400ADF80610ADF80800E4
:109E5000ADF80A00ADF80C00ADF81200072320465B
:109E600001A9ADF81020ADF80E50ADF8143001F096
:109E70003BFE2088054A81B211802046012101F075
:109E800052FE06B070BD00BF000C0140DC23002074
:109E900010B50B4C238823F0400001040A0C2280EB
:109EA000FFF786FF074B188881B2074841F0400250
:109EB0004FF480512280BDE8104001F0ADBC00BFDE
:109EC00000380040DE230020000C014007B50820C8
:109ED000012101F06DFD032014214FF480638DF802
:109EE00006008DF80710034801A9ADF8043001F011
:109EF0003BFC0EBD000C0140002008B501F028FD20
:109F00004FF400000121BDE8084001F05DBD0000F4
:109F1000014B03221A607047281A0020044B0548A1
:109F20009A7A0AB1052100E001210160704700BF63
:109F3000F0230020281A002007B5022014238DF8F2
:109F400005000021012201A88DF804308DF80610CB
:109F50008DF8072001F00EFA0EBD000020B1054873
:109F60004FF4806101F058BC02484FF4806101F069
:109F700051BC00BF000C01400A4B987D80B10A49DA
:109F80000A4B0A880A48A3F844200188094AA3F822
:109F9000461010880849A3F848000A88A3F84A2008
:109FA000704700BFF8190020004C0008680200202C
:109FB000024C0008044C0008064C000810B51A4B6F
:109FC000987D00282FD001F055FB342001F066FB6E
:109FD000164801F0ABFB042824D1154C1348B4F803
:109FE000441001F087FB04281BD11248B4F8461036
:109FF00001F080FB042813D10F48B4F8481001F099
:10A0000079FB04280BD10D48B4F84A1001F072FB1B
:10A01000042803D1BDE8104001F038BBFEE7FEE79D
:10A02000FEE7FEE7FEE710BDF8190020004C00082F
:10A0300068020020024C0008044C0008064C00088E
:10A0400038B505464FF0FF10FFF722FBFFF784F904
:10A050000C4B0024A3F84A40FFF7B0FF0A48202227
:10A060008562C2610462084C216AE369994207D2A1
:10A0700005EB013000F0F3F9206A421C2262F2E79E
:10A0800038BD00BF68020020F81900202DE9F0411A
:10A0900006460F464FEA91080024444516D056F86C
:10A0A00024201748174D0270C2F30721C2F307435B
:10A0B000EA62120E4170C270A96A0422837000F035
:10A0C00065F9A86A0134011DA962E6E7BB0711D052
:10A0D00056F824300A480B4AC3F307214170C3F3F2
:10A0E0000741D362037081701B0E916A0422C37012
:10A0F00000F04CF9E720BDE8F041FFF773BB00BF6B
:10A10000D8230020F819002008B5074B0524A3F830
:10A110004840FFF753FF2820214601F069F900204D
:10A12000FFF71CFFFFF706F9680200204FF480518B
:10A130004FF4937200F07DB84FF400514FF4197250
:10A1400000F077B8034BB3F84A00421E514251EB7E
:10A150000200704768020020024B0022A3F84A2048
:10A16000FFF72CBF6802002070B50E46054601F0CF
:10A170005DF9B3082C461A46013A0434511C1149C2
:10A1800005D054F8040C90FAA0F00860F4E705EB51
:10A190008303086890FAA0F106F003069E19B34203
:10A1A0000ED013F8014B0822614011F0010F4FEA65
:10A1B000510416BF044921466140013AF5D1EEE74A
:10A1C000C84370BD003002402083B8ED10B504468E
:10A1D0000A48022101F0C1FC0028F9D007482146B5
:10A1E00001F0B6FC0548012101F0B7FC0028F9D0C8
:10A1F000024801F0AFFCC0B210BD00BF0038004003
:10A2000070B5FFF7B7FD9F20FFF7E0FFFF20FFF7D6
:10A21000DDFF0446FF20FFF7D9FF0546FF20FFF7CB
:10A22000D5FF2D020646FFF7C3FD45EA0440304343
:10A2300070BD70B50C4615460646FFF79BFD032022
:10A24000FFF7C4FFC4F30740FFF7C0FFC4F30720C4
:10A25000FFF7BCFFE0B2FFF7B9FF3DB1FF20FFF70A
:10A26000B5FF013D06F8010BADB2F6E7BDE8704061
:10A27000FFF79EBD08B5FFF77DFD0620FFF7A6FF9F
:10A28000BDE80840FFF794BD08B5FFF773FD042053
:10A29000FFF79CFFBDE80840FFF78ABD08B5FFF750
:10A2A0008FFDFFF7F1FFFFF7ABFF104B984202D095
:10A2B0004C3B984219D1FFF75DFD8020FFF786FFE8
:10A2C000FFF776FDFFF756FD5020FFF77FFFFFF702
:10A2D0006FFDFFF74FFD0120FFF778FF0020FFF72C
:10A2E00075FFBDE80840FFF763BD08BD8D25BF00C1
:10A2F00008B5FFF73FFD0520FFF768FFFF20FFF7D8
:10A3000065FFC307FAD4BDE80840FFF751BD70B53B
:10A310000D4616460446FFF7ADFFFFF72BFDAD20B7
:10A32000FFF754FFC5F30740FFF750FFC5F30720C1
:10A33000FFF74CFFE8B2FFF749FF2078FFF746FF31
:10A340006078FFF743FFFFF733FDFFF7D1FFA51C50
:10A350002C4602342B1BF01881B289B1FFF70AFD9D
:10A36000AD20FFF733FF14F8020CFFF72FFF14F8AE
:10A37000010CFFF72BFFFFF71BFDFFF7B9FFE8E725
:10A38000FFF716FDBDE87040FFF77EBF2DE9F84FDF
:10A3900011F0FF0906460D4617464FEA12381DD147
:10A3A000B8F1000F03D1304629463A4651E0044641
:10A3B0005FFA89F2A81B904504EB000109D0204602
:10A3C0004FF48052FFF7A3FF04F5805409F101090F
:10A3D000EEE74FEA08317018491939E0C9F1000475
:10A3E000E4B2B8F1000F0DD1D2B2A242DBD902EB38
:10A3F00009035FFA83F92246FFF789FF30196119D3
:10A400004A4626E0171B2246FFF781FFBFB24FEAFC
:10A410001739651934195FFA89FB5FFA87FAA04684
:10A420000026F3B2291B9B45414408D040464FF417
:10A430008052FFF76CFF08F580580136F1E74FEACC
:10A44000093904EB090009EB0501BAF1000F04D04A
:10A45000FAB2BDE8F84FFFF75ABFBDE8F88F10B564
:10A460000446FFF707FFFFF785FC2020FFF7AEFE4D
:10A47000C4F30740FFF7AAFEC4F30720FFF7A6FEC8
:10A48000E0B2FFF7A3FEFFF793FCBDE81040FFF733
:10A490002FBF00003A4B82B01A6842F001001860EA
:10A4A0005968384A0A405A60186820F0847121F4CB
:10A4B00080321A60186820F4802119605A684FF4BD
:10A4C0001F0122F4FE000022586099600092019260
:10A4D000186840F480311960294B1A6802F4003082
:10A4E000019000994A1C0092019818B90099B1F5A1
:10A4F000A06FF1D11B6813F4003218BF0122019242
:10A500000198012805D0204B4FF000629A6002B0FC
:10A5100070471E490B6843F010020A60086820F07B
:10A5200003030B600A68A1F5805342F00200086043
:10A53000596859605A685A60586840F48061596097
:10A540005A6822F47C105860596841F4E8125A6045
:10A55000186840F0807119601868094A8101FBD5BC
:10A56000536823F003015160506840F002035360C8
:10A57000034A516801F00C000828F9D1C3E700BF75
:10A58000001002400000FFF800ED00E00020024053
:10A5900008B50120FFF7E2FC064B07490122002025
:10A5A0001A601860086005494FF4E0520A801A608A
:10A5B00008BD00BF405C0040445C00401424002003
:10A5C000064B1A6890B240F0080119601A6890B200
:10A5D00040F004011960FFF79BBC00BF405C0040E5
:10A5E00010B5064C4FF6FB73226813402360FFF74B
:10A5F00095FC4FF43F40206010BD00BF405C004020
:10A600001F4B072810B518BF18701A781C4C052A64
:10A6100033D8DFE802F003070C101823FFF7E0FF40
:10A62000062202E0FFF7DCFF0422227010BD0221A7
:10A630005970032022E059784A1ED0B258705B78D6
:10A64000EBB9042017E00F4B186881B241F01002FB
:10A650001A600A2005232370607010BD5878411ECF
:10A66000CAB25A705B7853B906484FF6EF72016868
:10A670000A4002600620024B00E00620187010BD60
:10A68000E0230020405C004010B5064C18B9236858
:10A6900001221A8210BD044B18680168884720689F
:10A6A0000A3010BD102400200C24002010B5064CE8
:10A6B00018B9236801221A8210BD044B18688168FA
:10A6C000884720680C3010BD102400200C24002086
:10A6D00008B5234A18B9136802221A8208BD214B13
:10A6E000002012681880117811F07F0113D1507A80
:10A6F00000F02002D1B209B102221A7000F040032A
:10A70000D8B2184B18B11A7842F001011EE019783E
:10A7100021F001011AE001291FD002291ED1507930
:10A7200000F00F024FEA820110F0800F01F180402B
:10A7300000F5B842116803D001F03002102A03E09E
:10A7400001F44050B0F5805F01D101211970064B32
:10A75000186801698847034808BD184608BD00BF4E
:10A7600010240020E22300200C240020F8B5224B06
:10A770001C68238A267AABB9042E13D11F480178AE
:10A7800001291F490AD11F4C226894B21E4AA218FF
:10A790005200136030220A80037028E010260E80D9
:10A7A000072624E0A58AA169AB428CBF02260426B5
:10A7B0009D4228BF1D46284688470746002000F0D6
:10A7C00061FD2A460146384600F06EFC294600200D
:10A7D00000F074FD208A638A421BED1808480B4B79
:10A7E000228230214FF44052018065821A80024B50
:10A7F00018680672F8BD00BF102400202C1A002033
:10A8000018240020505C0040023000201624002054
:10A8100010B50A4B0A4918684B78C27893420AD39C
:10A82000817841B9848834B98272064802685368D5
:10A830009847204610BD022010BD00BF1024002004
:10A84000580200200C24002038B50E4A0E4C106827
:10A8500023688269D9785879904721688B7A7BB1CF
:10A8600070B9087960B98D7855B9084A1168CB6814
:10A87000984720684279C178C2720173284638BD72
:10A88000022038BDE8230020102400200C240020E2
:10A8900010B5324B1B68187810F07F0004D15A7A3B
:10A8A00022F02001597210BD022855D15A88002A81
:10A8B00053D11979002950D15A7922F080004FEAFA
:10A8C000800404F1804101F5B8442168244C12F061
:10A8D000800F247814BF01F0300101F44051A042F0
:10A8E0003AD2002938D09B7A002B35D0840002F070
:10A8F000800204F18043D1B203F5B844226861B10B
:10A9000002F03002102A21D1C4B2204600F087FCA8
:10A910002046302100F006FC18E002F44051B1F569
:10A92000805F13D128B90F4B93F82C1000F0D4FCA2
:10A9300001E000F062FC20684BF68F72024082F466
:10A94000405141F4004343F08000206006490B6809
:10A9500058698047002010BD022010BD102400203F
:10A9600058020020040200200C24002010B51F4BC8
:10A9700019684A7922F080034FEA830000F180448D
:10A9800004F5B8401A4C0068247812F0800F14BF08
:10A9900000F0300000F44050A34224D24C8814BB95
:10A9A00008B3897AF9B19B0003F1804102F080027B
:10A9B00001F5B843D0B2196828B148F6BF720A4011
:10A9C00082F0100004E04BF68F720A4082F480504F
:10A9D00040F4004141F080001860064B1A6891690C
:10A9E0008847002010BD022010BD00BF10240020A9
:10A9F000580200200C24002008B5064B1868064BAE
:10AA0000427A42F0200141721868C26990470020E2
:10AA100008BD00BF102400200C240020054B1A683C
:10AA2000538A18B98988CB1A138270470868C018EE
:10AA3000704700BF1024002008B50B4B002093F88E
:10AA40002C1000F049FC09480168087A082806D152
:10AA5000074B4FF480521A80064A10211180B0F142
:10AA600009035842584108BD040200201024002068
:10AA7000162400201824002070B52E4B1C68207A64
:10AA800002284FD004284DD0032801D0052843D1F7
:10AA9000A169208AA9B1A0B1A58A854228BF05462F
:10AAA00028468847228A0646608A531B29186182F5
:10AAB0002382002000F0F4FB2A460146304600F0D5
:10AAC0000AFB228A52B11C4B4FF4405018800020E0
:10AAD000014600F0F3FB194A30211180208AA38A35
